{
    "name": "CharacterSheets Level",
    "details": [
        "A Hats Protocol eligibility module that checks players for CharacterSheets characters with a minimum level for specific classes."
    ],
    "links": [
        {
            "label": "GitHub",
            "link": "https://github.com/raid-guild/character-sheets-contracts"
        },
        {
            "label": "CharacterSheets",
            "link": "https://charactersheets.io"
        },
        {
            "label": "RaidGuild",
            "link": "https://raidguild.org"
        }
    ],
    "parameters": [
        {
            "label": "Class IDs",
            "functionName": "classIds",
            "displayType": "number[]"
        },
        {
            "label": "Min Levels",
            "functionName": "minLevels",
            "displayType": "number[]"
        },
        {
            "label": "CharacterSheet",
            "functionName": "SHEETS_ADDRESS",
            "displayType": "address"
        },
        {
            "label": "Classes Token",
            "functionName": "CLASSES_ADDRESS",
            "displayType": "erc1155"
        }
    ],
    "type": {
        "eligibility": true,
        "toggle": false,
        "hatter": false
    },
    "implementationAddress": "0x937f17D42959c53F0ff22FfdBb22C04Fe1F09cF4",
    "creationArgs": {
        "useHatId": true,
        "immutable": [
            {
                "name": "Classes Address",
                "description": "The address for the Classes token used in the character sheets game",
                "type": "address",
                "example": "0xaddress",
                "displayType": "erc1155"
            },
            {
                "name": "CharacterSheets Address",
                "description": "The address for the CharacterSheets game where players have characters.",
                "type": "address",
                "example": "0xaddress",
                "displayType": "default"
            }
        ],
        "mutable": [
            {
                "name": "Class IDs",
                "description": "Initial classes to be included for eligibility",
                "type": "uint256[]",
                "example": [
                    "1",
                    "2"
                ],
                "displayType": "default"
            },
            {
                "name": "Minimum Levels",
                "description": "Initial levels needed for each class to be included for eligibility",
                "type": "uint256[]",
                "example": [
                    "1",
                    "2"
                ],
                "displayType": "default"
            }
        ]
    },
    "abi": [
        {
            "inputs": [
                {
                    "internalType": "string",
                    "name": "_version",
                    "type": "string"
                }
            ],
            "stateMutability": "nonpayable",
            "type": "constructor"
        },
        {
            "inputs": [],
            "name": "ElderEligibility_HatImmutable",
            "type": "error"
        },
        {
            "inputs": [],
            "name": "ElderEligibility_NotHatAdmin",
            "type": "error"
        },
        {
            "inputs": [],
            "name": "LengthMismatch",
            "type": "error"
        },
        {
            "anonymous": false,
            "inputs": [
                {
                    "indexed": false,
                    "internalType": "uint256[]",
                    "name": "",
                    "type": "uint256[]"
                },
                {
                    "indexed": false,
                    "internalType": "uint256[]",
                    "name": "",
                    "type": "uint256[]"
                }
            ],
            "name": "ClassesAdded",
            "type": "event"
        },
        {
            "anonymous": false,
            "inputs": [
                {
                    "indexed": false,
                    "internalType": "address",
                    "name": "",
                    "type": "address"
                }
            ],
            "name": "ElderEligibilityDeployed",
            "type": "event"
        },
        {
            "anonymous": false,
            "inputs": [
                {
                    "indexed": false,
                    "internalType": "uint8",
                    "name": "version",
                    "type": "uint8"
                }
            ],
            "name": "Initialized",
            "type": "event"
        },
        {
            "inputs": [],
            "name": "ARRAY_LENGTH",
            "outputs": [
                {
                    "internalType": "uint256",
                    "name": "",
                    "type": "uint256"
                }
            ],
            "stateMutability": "pure",
            "type": "function"
        },
        {
            "inputs": [],
            "name": "CLASSES_ADDRESS",
            "outputs": [
                {
                    "internalType": "address",
                    "name": "",
                    "type": "address"
                }
            ],
            "stateMutability": "pure",
            "type": "function"
        },
        {
            "inputs": [],
            "name": "HATS",
            "outputs": [
                {
                    "internalType": "contract IHats",
                    "name": "",
                    "type": "address"
                }
            ],
            "stateMutability": "pure",
            "type": "function"
        },
        {
            "inputs": [],
            "name": "IMPLEMENTATION",
            "outputs": [
                {
                    "internalType": "address",
                    "name": "",
                    "type": "address"
                }
            ],
            "stateMutability": "pure",
            "type": "function"
        },
        {
            "inputs": [],
            "name": "SHEETS_ADDRESS",
            "outputs": [
                {
                    "internalType": "address",
                    "name": "",
                    "type": "address"
                }
            ],
            "stateMutability": "pure",
            "type": "function"
        },
        {
            "inputs": [
                {
                    "internalType": "uint256[]",
                    "name": "_classIds",
                    "type": "uint256[]"
                },
                {
                    "internalType": "uint256[]",
                    "name": "_minLevels",
                    "type": "uint256[]"
                }
            ],
            "name": "addClasses",
            "outputs": [],
            "stateMutability": "nonpayable",
            "type": "function"
        },
        {
            "inputs": [
                {
                    "internalType": "uint256",
                    "name": "",
                    "type": "uint256"
                }
            ],
            "name": "classIds",
            "outputs": [
                {
                    "internalType": "uint256",
                    "name": "",
                    "type": "uint256"
                }
            ],
            "stateMutability": "view",
            "type": "function"
        },
        {
            "inputs": [
                {
                    "internalType": "address",
                    "name": "_wearer",
                    "type": "address"
                },
                {
                    "internalType": "uint256",
                    "name": "",
                    "type": "uint256"
                }
            ],
            "name": "getWearerStatus",
            "outputs": [
                {
                    "internalType": "bool",
                    "name": "eligible",
                    "type": "bool"
                },
                {
                    "internalType": "bool",
                    "name": "standing",
                    "type": "bool"
                }
            ],
            "stateMutability": "view",
            "type": "function"
        },
        {
            "inputs": [],
            "name": "hatId",
            "outputs": [
                {
                    "internalType": "uint256",
                    "name": "",
                    "type": "uint256"
                }
            ],
            "stateMutability": "pure",
            "type": "function"
        },
        {
            "inputs": [
                {
                    "internalType": "uint256",
                    "name": "",
                    "type": "uint256"
                }
            ],
            "name": "minLevels",
            "outputs": [
                {
                    "internalType": "uint256",
                    "name": "",
                    "type": "uint256"
                }
            ],
            "stateMutability": "view",
            "type": "function"
        },
        {
            "inputs": [
                {
                    "internalType": "bytes",
                    "name": "_initData",
                    "type": "bytes"
                }
            ],
            "name": "setUp",
            "outputs": [],
            "stateMutability": "nonpayable",
            "type": "function"
        },
        {
            "inputs": [],
            "name": "version",
            "outputs": [
                {
                    "internalType": "string",
                    "name": "",
                    "type": "string"
                }
            ],
            "stateMutability": "view",
            "type": "function"
        },
        {
            "inputs": [],
            "name": "version_",
            "outputs": [
                {
                    "internalType": "string",
                    "name": "",
                    "type": "string"
                }
            ],
            "stateMutability": "view",
            "type": "function"
        }
    ],
    "bytecode": {
        "object": "0x60806040523480156200001157600080fd5b50604051620017183803806200171883398101604081905262000034916200012d565b80600162000043828262000291565b506200004e62000056565b50506200035d565b600054610100900460ff1615620000c35760405162461bcd60e51b815260206004820152602760248201527f496e697469616c697a61626c653a20636f6e747261637420697320696e697469604482015266616c697a696e6760c81b606482015260840160405180910390fd5b60005460ff9081161462000115576000805460ff191660ff9081179091556040519081527f7f26b83ff96e1f2b6a682f133852f6798a09c465da95921460cefb38474024989060200160405180910390a15b565b634e487b7160e01b600052604160045260246000fd5b600060208083850312156200014157600080fd5b82516001600160401b03808211156200015957600080fd5b818501915085601f8301126200016e57600080fd5b81518181111562000183576200018362000117565b604051601f8201601f19908116603f01168101908382118183101715620001ae57620001ae62000117565b816040528281528886848701011115620001c757600080fd5b600093505b82841015620001eb5784840186015181850187015292850192620001cc565b600086848301015280965050505050505092915050565b600181811c908216806200021757607f821691505b6020821081036200023857634e487b7160e01b600052602260045260246000fd5b50919050565b601f8211156200028c57600081815260208120601f850160051c81016020861015620002675750805b601f850160051c820191505b81811015620002885782815560010162000273565b5050505b505050565b81516001600160401b03811115620002ad57620002ad62000117565b620002c581620002be845462000202565b846200023e565b602080601f831160018114620002fd5760008415620002e45750858301515b600019600386901b1c1916600185901b17855562000288565b600085815260208120601f198616915b828110156200032e578886015182559484019460019091019084016200030d565b50858210156200034d5787850151600019600388901b60f8161c191681555b5050505050600190811b01905550565b6113ab806200036d6000396000f3fe608060405234801561001057600080fd5b50600436106100df5760003560e01c8063918e31cd1161008c578063bca24bd411610066578063bca24bd4146101d8578063bd683872146101eb578063dd1bb1fc14610215578063fa7eecb51461021d57600080fd5b8063918e31cd14610198578063a02a4ad1146101b0578063a4f9edbf146101c557600080fd5b806343cc5313116100bd57806343cc53131461015657806354fd4d501461016b5780637150ef881461018057600080fd5b806307ace2b5146100e457806322d2cb05146101085780633a4741bd14610141575b600080fd5b3660011981013560f01c9003602801355b6040519081526020015b60405180910390f35b3660011981013560f01c90036048013560601c5b60405173ffffffffffffffffffffffffffffffffffffffff90911681526020016100ff565b3660011981013560f01c90033560601c61011c565b610169610164366004610bec565b610235565b005b610173610445565b6040516100ff9190610c7c565b3660011981013560f01c90036014013560601c61011c565b3660011981013560f01c9003605c013560601c61011c565b3660011981013560f01c9003607001356100f5565b6101696101d3366004610ccd565b6104e6565b6100f56101e6366004610d3f565b610680565b6101fe6101f9366004610d7d565b6106a1565b6040805192151583529015156020830152016100ff565b610173610936565b6100f561022b366004610d3f565b6109c4565b905090565b604080517fb56f75620000000000000000000000000000000000000000000000000000000081523360048201523660011981013560f01c900360288101356024830152915160149092013560601c9163b56f7562916044808201926020929091908290030181865afa1580156102af573d6000803e3d6000fd5b505050506040513d601f19601f820116820180604052508101906102d39190610dbe565b610309576040517f74a2dcf100000000000000000000000000000000000000000000000000000000815260040160405180910390fd5b6103116109d4565b610347576040517f3c9f7da700000000000000000000000000000000000000000000000000000000815260040160405180910390fd5b82818114610381576040517fff633a3800000000000000000000000000000000000000000000000000000000815260040160405180910390fd5b60005b818110156104005760028686838181106103a0576103a0610de0565b8354600181018555600094855260209485902091909402929092013591909201555060038484838181106103d6576103d6610de0565b83546001808201865560009586526020958690209290950293909301359201919091555001610384565b507f034bedefbf73c02b2bfa112385a8d3b25a5ed65cbe14c890d2e2241fdc526e05858585856040516104369493929190610e5a565b60405180910390a15050505050565b60603660011981013560f01c900335811c73ffffffffffffffffffffffffffffffffffffffff1663dd1bb1fc6040518163ffffffff1660e01b8152600401600060405180830381865afa1580156104a0573d6000803e3d6000fd5b505050506040513d6000823e601f3d9081017fffffffffffffffffffffffffffffffffffffffffffffffffffffffffffffffe01682016040526102309190810190610fbd565b600054610100900460ff16158080156105065750600054600160ff909116105b806105205750303b158015610520575060005460ff166001145b6105b0576040517f08c379a000000000000000000000000000000000000000000000000000000000815260206004820152602e60248201527f496e697469616c697a61626c653a20636f6e747261637420697320616c72656160448201527f647920696e697469616c697a6564000000000000000000000000000000000000606482015260840160405180910390fd5b600080547fffffffffffffffffffffffffffffffffffffffffffffffffffffffffffffff00166001179055801561060e57600080547fffffffffffffffffffffffffffffffffffffffffffffffffffffffffffff00ff166101001790555b6106188383610a96565b801561067b57600080547fffffffffffffffffffffffffffffffffffffffffffffffffffffffffffff00ff169055604051600181527f7f26b83ff96e1f2b6a682f133852f6798a09c465da95921460cefb38474024989060200160405180910390a15b505050565b6002818154811061069057600080fd5b600091825260209091200154905081565b6003546000908190813660011981013560f01c90036048013560601c905060003660011981013560f01c9003605c013560601c6040517f07c3a2e300000000000000000000000000000000000000000000000000000000815273ffffffffffffffffffffffffffffffffffffffff898116600483015291909116906307c3a2e390602401602060405180830381865afa158015610742573d6000803e3d6000fd5b505050506040513d601f19601f820116820180604052508101906107669190610ff2565b6040517fcb0825a1000000000000000000000000000000000000000000000000000000008152600481018290529091506000903660011981013560f01c9003605c013560601c9063cb0825a190602401600060405180830381865afa1580156107d3573d6000803e3d6000fd5b505050506040513d6000823e601f3d9081017fffffffffffffffffffffffffffffffffffffffffffffffffffffffffffffffe0168201604052610819919081019061102f565b60200151905060005b84811015610926576003818154811061083d5761083d610de0565b90600052602060002001548473ffffffffffffffffffffffffffffffffffffffff1662fdd58e846002858154811061087757610877610de0565b6000918252602090912001546040517fffffffff0000000000000000000000000000000000000000000000000000000060e085901b16815273ffffffffffffffffffffffffffffffffffffffff90921660048301526024820152604401602060405180830381865afa1580156108f1573d6000803e3d6000fd5b505050506040513d601f19601f820116820180604052508101906109159190610ff2565b101596508661092657600101610822565b5060019450505050509250929050565b600180546109439061111d565b80601f016020809104026020016040519081016040528092919081815260200182805461096f9061111d565b80156109bc5780601f10610991576101008083540402835291602001916109bc565b820191906000526020600020905b81548152906001019060200180831161099f57829003601f168201915b505050505081565b6003818154811061069057600080fd5b6040517fd395acf80000000000000000000000000000000000000000000000000000000081523660011981013560f01c90036028810135600483015260009160149091013560601c9063d395acf890602401600060405180830381865afa158015610a43573d6000803e3d6000fd5b505050506040513d6000823e601f3d9081017fffffffffffffffffffffffffffffffffffffffffffffffffffffffffffffffe0168201604052610a899190810190611196565b5098975050505050505050565b600080610aa5838501856112db565b9150915060008251905081518114610ae9576040517fff633a3800000000000000000000000000000000000000000000000000000000815260040160405180910390fd5b60005b81811015610b6f576002848281518110610b0857610b08610de0565b602090810291909101810151825460018101845560009384529190922001558251600390849083908110610b3e57610b3e610de0565b6020908102919091018101518254600181018455600093845291909220015580610b678161133f565b915050610aec565b506040513081527fdd1ca0d05518a8140d64fa241ee0d9f92d1588afd58670b4bf4c463386e9304390602001610436565b60008083601f840112610bb257600080fd5b50813567ffffffffffffffff811115610bca57600080fd5b6020830191508360208260051b8501011115610be557600080fd5b9250929050565b60008060008060408587031215610c0257600080fd5b843567ffffffffffffffff80821115610c1a57600080fd5b610c2688838901610ba0565b90965094506020870135915080821115610c3f57600080fd5b50610c4c87828801610ba0565b95989497509550505050565b60005b83811015610c73578181015183820152602001610c5b565b50506000910152565b6020815260008251806020840152610c9b816040850160208701610c58565b601f017fffffffffffffffffffffffffffffffffffffffffffffffffffffffffffffffe0169190910160400192915050565b60008060208385031215610ce057600080fd5b823567ffffffffffffffff80821115610cf857600080fd5b818501915085601f830112610d0c57600080fd5b813581811115610d1b57600080fd5b866020828501011115610d2d57600080fd5b60209290920196919550909350505050565b600060208284031215610d5157600080fd5b5035919050565b73ffffffffffffffffffffffffffffffffffffffff81168114610d7a57600080fd5b50565b60008060408385031215610d9057600080fd5b8235610d9b81610d58565b946020939093013593505050565b80518015158114610db957600080fd5b919050565b600060208284031215610dd057600080fd5b610dd982610da9565b9392505050565b7f4e487b7100000000000000000000000000000000000000000000000000000000600052603260045260246000fd5b81835260007f07ffffffffffffffffffffffffffffffffffffffffffffffffffffffffffffff831115610e4157600080fd5b8260051b80836020870137939093016020019392505050565b604081526000610e6e604083018688610e0f565b8281036020840152610e81818587610e0f565b979650505050505050565b7f4e487b7100000000000000000000000000000000000000000000000000000000600052604160045260246000fd5b6040516060810167ffffffffffffffff81118282101715610ede57610ede610e8c565b60405290565b604051601f82017fffffffffffffffffffffffffffffffffffffffffffffffffffffffffffffffe016810167ffffffffffffffff81118282101715610f2b57610f2b610e8c565b604052919050565b600082601f830112610f4457600080fd5b815167ffffffffffffffff811115610f5e57610f5e610e8c565b610f8f60207fffffffffffffffffffffffffffffffffffffffffffffffffffffffffffffffe0601f84011601610ee4565b818152846020838601011115610fa457600080fd5b610fb5826020830160208701610c58565b949350505050565b600060208284031215610fcf57600080fd5b815167ffffffffffffffff811115610fe657600080fd5b610fb584828501610f33565b60006020828403121561100457600080fd5b5051919050565b600067ffffffffffffffff82111561102557611025610e8c565b5060051b60200190565b6000602080838503121561104257600080fd5b825167ffffffffffffffff8082111561105a57600080fd5b908401906060828703121561106e57600080fd5b611076610ebb565b825161108181610d58565b81528284015161109081610d58565b818501526040830151828111156110a657600080fd5b80840193505086601f8401126110bb57600080fd5b825191506110d06110cb8361100b565b610ee4565b82815260059290921b830184019184810190888411156110ef57600080fd5b938501935b8385101561110d578451825293850193908501906110f4565b6040830152509695505050505050565b600181811c9082168061113157607f821691505b60208210810361116a577f4e487b7100000000000000000000000000000000000000000000000000000000600052602260045260246000fd5b50919050565b805163ffffffff81168114610db957600080fd5b805161ffff81168114610db957600080fd5b60008060008060008060008060006101208a8c0312156111b557600080fd5b895167ffffffffffffffff808211156111cd57600080fd5b6111d98d838e01610f33565b9a506111e760208d01611170565b99506111f560408d01611170565b985060608c0151915061120782610d58565b60808c015191975061121882610d58565b60a08c01519196508082111561122d57600080fd5b5061123a8c828d01610f33565b94505061124960c08b01611184565b925061125760e08b01610da9565b91506112666101008b01610da9565b90509295985092959850929598565b600082601f83011261128657600080fd5b813560206112966110cb8361100b565b82815260059290921b840181019181810190868411156112b557600080fd5b8286015b848110156112d057803583529183019183016112b9565b509695505050505050565b600080604083850312156112ee57600080fd5b823567ffffffffffffffff8082111561130657600080fd5b61131286838701611275565b9350602085013591508082111561132857600080fd5b5061133585828601611275565b9150509250929050565b60007fffffffffffffffffffffffffffffffffffffffffffffffffffffffffffffffff8203611397577f4e487b7100000000000000000000000000000000000000000000000000000000600052601160045260246000fd5b506001019056fea164736f6c6343000814000a",
        "linkReferences": {}
    },
    "methodIdentifiers": {
        "ARRAY_LENGTH()": "a02a4ad1",
        "CLASSES_ADDRESS()": "22d2cb05",
        "HATS()": "7150ef88",
        "IMPLEMENTATION()": "3a4741bd",
        "SHEETS_ADDRESS()": "918e31cd",
        "addClasses(uint256[],uint256[])": "43cc5313",
        "classIds(uint256)": "bca24bd4",
        "getWearerStatus(address,uint256)": "bd683872",
        "hatId()": "07ace2b5",
        "minLevels(uint256)": "fa7eecb5",
        "setUp(bytes)": "a4f9edbf",
        "version()": "54fd4d50",
        "version_()": "dd1bb1fc"
    },
    "id": 41
}